{
  "contractName": "ClaimInitiation",
  "abi": [
    {
      "anonymous": false,
      "inputs": [
        {
          "indexed": false,
          "internalType": "uint256",
          "name": "claimId",
          "type": "uint256"
        },
        {
          "indexed": false,
          "internalType": "address",
          "name": "userAddress",
          "type": "address"
        }
      ],
      "name": "ClaimInitiated",
      "type": "event"
    },
    {
      "inputs": [
        {
          "internalType": "uint256",
          "name": "",
          "type": "uint256"
        }
      ],
      "name": "claims",
      "outputs": [
        {
          "internalType": "uint256",
          "name": "claimId",
          "type": "uint256"
        },
        {
          "internalType": "uint256",
          "name": "policyId",
          "type": "uint256"
        },
        {
          "internalType": "address",
          "name": "userAddress",
          "type": "address"
        },
        {
          "internalType": "string",
          "name": "claimReason",
          "type": "string"
        },
        {
          "internalType": "uint256",
          "name": "claimAmount",
          "type": "uint256"
        },
        {
          "internalType": "bool",
          "name": "isVerified",
          "type": "bool"
        },
        {
          "internalType": "bool",
          "name": "isProcessed",
          "type": "bool"
        }
      ],
      "stateMutability": "view",
      "type": "function"
    },
    {
      "inputs": [],
      "name": "lastClaimId",
      "outputs": [
        {
          "internalType": "uint256",
          "name": "",
          "type": "uint256"
        }
      ],
      "stateMutability": "view",
      "type": "function"
    },
    {
      "inputs": [
        {
          "internalType": "uint256",
          "name": "_policyId",
          "type": "uint256"
        },
        {
          "internalType": "string",
          "name": "_claimReason",
          "type": "string"
        },
        {
          "internalType": "uint256",
          "name": "_claimAmount",
          "type": "uint256"
        }
      ],
      "name": "initiateClaim",
      "outputs": [
        {
          "internalType": "uint256",
          "name": "",
          "type": "uint256"
        }
      ],
      "stateMutability": "nonpayable",
      "type": "function"
    }
  ],
  "bytecode": "0x608060405234801561001057600080fd5b50610b87806100206000396000f3fe608060405234801561001057600080fd5b50600436106100415760003560e01c806329f1c955146100465780637119ca7614610076578063a888c2cd14610094575b600080fd5b610060600480360381019061005b919061052a565b6100ca565b60405161006d91906105a8565b60405180910390f35b61007e610290565b60405161008b91906105a8565b60405180910390f35b6100ae60048036038101906100a991906105c3565b610296565b6040516100c197969594939291906106cb565b60405180910390f35b600080821161010e576040517f08c379a0000000000000000000000000000000000000000000000000000000008152600401610105906107b3565b60405180910390fd5b6001600081548092919061012190610802565b91905055506040518060e0016040528060015481526020018581526020013373ffffffffffffffffffffffffffffffffffffffff168152602001848152602001838152602001600015158152602001600015158152506000806001548152602001908152602001600020600082015181600001556020820151816001015560408201518160020160006101000a81548173ffffffffffffffffffffffffffffffffffffffff021916908373ffffffffffffffffffffffffffffffffffffffff16021790555060608201518160030190816101fb9190610a56565b506080820151816004015560a08201518160050160006101000a81548160ff02191690831515021790555060c08201518160050160016101000a81548160ff0219169083151502179055509050507f16110602114a9075a58c79178f3c42e8f3efedf21fe3169ef4d674ee461bfb566001543360405161027c929190610b28565b60405180910390a160015490509392505050565b60015481565b60006020528060005260406000206000915090508060000154908060010154908060020160009054906101000a900473ffffffffffffffffffffffffffffffffffffffff16908060030180546102eb90610879565b80601f016020809104026020016040519081016040528092919081815260200182805461031790610879565b80156103645780601f1061033957610100808354040283529160200191610364565b820191906000526020600020905b81548152906001019060200180831161034757829003601f168201915b5050505050908060040154908060050160009054906101000a900460ff16908060050160019054906101000a900460ff16905087565b6000604051905090565b600080fd5b600080fd5b6000819050919050565b6103c1816103ae565b81146103cc57600080fd5b50565b6000813590506103de816103b8565b92915050565b600080fd5b600080fd5b6000601f19601f8301169050919050565b7f4e487b7100000000000000000000000000000000000000000000000000000000600052604160045260246000fd5b610437826103ee565b810181811067ffffffffffffffff82111715610456576104556103ff565b5b80604052505050565b600061046961039a565b9050610475828261042e565b919050565b600067ffffffffffffffff821115610495576104946103ff565b5b61049e826103ee565b9050602081019050919050565b82818337600083830152505050565b60006104cd6104c88461047a565b61045f565b9050828152602081018484840111156104e9576104e86103e9565b5b6104f48482856104ab565b509392505050565b600082601f830112610511576105106103e4565b5b81356105218482602086016104ba565b91505092915050565b600080600060608486031215610543576105426103a4565b5b6000610551868287016103cf565b935050602084013567ffffffffffffffff811115610572576105716103a9565b5b61057e868287016104fc565b925050604061058f868287016103cf565b9150509250925092565b6105a2816103ae565b82525050565b60006020820190506105bd6000830184610599565b92915050565b6000602082840312156105d9576105d86103a4565b5b60006105e7848285016103cf565b91505092915050565b600073ffffffffffffffffffffffffffffffffffffffff82169050919050565b600061061b826105f0565b9050919050565b61062b81610610565b82525050565b600081519050919050565b600082825260208201905092915050565b60005b8381101561066b578082015181840152602081019050610650565b60008484015250505050565b600061068282610631565b61068c818561063c565b935061069c81856020860161064d565b6106a5816103ee565b840191505092915050565b60008115159050919050565b6106c5816106b0565b82525050565b600060e0820190506106e0600083018a610599565b6106ed6020830189610599565b6106fa6040830188610622565b818103606083015261070c8187610677565b905061071b6080830186610599565b61072860a08301856106bc565b61073560c08301846106bc565b98975050505050505050565b7f436c61696d20616d6f756e742073686f756c642062652067726561746572207460008201527f68616e2030000000000000000000000000000000000000000000000000000000602082015250565b600061079d60258361063c565b91506107a882610741565b604082019050919050565b600060208201905081810360008301526107cc81610790565b9050919050565b7f4e487b7100000000000000000000000000000000000000000000000000000000600052601160045260246000fd5b600061080d826103ae565b91507fffffffffffffffffffffffffffffffffffffffffffffffffffffffffffffffff820361083f5761083e6107d3565b5b600182019050919050565b7f4e487b7100000000000000000000000000000000000000000000000000000000600052602260045260246000fd5b6000600282049050600182168061089157607f821691505b6020821081036108a4576108a361084a565b5b50919050565b60008190508160005260206000209050919050565b60006020601f8301049050919050565b600082821b905092915050565b60006008830261090c7fffffffffffffffffffffffffffffffffffffffffffffffffffffffffffffffff826108cf565b61091686836108cf565b95508019841693508086168417925050509392505050565b6000819050919050565b600061095361094e610949846103ae565b61092e565b6103ae565b9050919050565b6000819050919050565b61096d83610938565b6109816109798261095a565b8484546108dc565b825550505050565b600090565b610996610989565b6109a1818484610964565b505050565b5b818110156109c5576109ba60008261098e565b6001810190506109a7565b5050565b601f821115610a0a576109db816108aa565b6109e4846108bf565b810160208510156109f3578190505b610a076109ff856108bf565b8301826109a6565b50505b505050565b600082821c905092915050565b6000610a2d60001984600802610a0f565b1980831691505092915050565b6000610a468383610a1c565b9150826002028217905092915050565b610a5f82610631565b67ffffffffffffffff811115610a7857610a776103ff565b5b610a828254610879565b610a8d8282856109c9565b600060209050601f831160018114610ac05760008415610aae578287015190505b610ab88582610a3a565b865550610b20565b601f198416610ace866108aa565b60005b82811015610af657848901518255600182019150602085019450602081019050610ad1565b86831015610b135784890151610b0f601f891682610a1c565b8355505b6001600288020188555050505b505050505050565b6000604082019050610b3d6000830185610599565b610b4a6020830184610622565b939250505056fea264697066735822122084398aab3bdd3df632c6428de6f72cd9dcdd577df0b661b6a102e620fb8c243964736f6c63430008120033",
  "immutableReferences": {},
  "source": "// SPDX-License-Identifier: MIT\r\npragma solidity ^0.8.0;\r\n\r\ncontract ClaimInitiation {\r\n    \r\n    struct Claim {\r\n        uint256 claimId;\r\n        uint256 policyId;\r\n        address userAddress;\r\n        string claimReason;\r\n        uint256 claimAmount;\r\n        bool isVerified;\r\n        bool isProcessed;\r\n    }\r\n    \r\n    mapping(uint256 => Claim) public claims;\r\n    \r\n    uint256 public lastClaimId;\r\n    \r\n    event ClaimInitiated(uint256 claimId, address userAddress);\r\n    \r\n    function initiateClaim(uint256 _policyId, string memory _claimReason, uint256 _claimAmount) public returns(uint256) {\r\n        require(_claimAmount > 0, \"Claim amount should be greater than 0\");\r\n        \r\n        lastClaimId++;\r\n        claims[lastClaimId] = Claim(lastClaimId, _policyId, msg.sender, _claimReason, _claimAmount, false, false);\r\n        \r\n        emit ClaimInitiated(lastClaimId, msg.sender);\r\n        \r\n        return lastClaimId;\r\n    }\r\n}",
  "sourcePath": "D:\\Insu.ClaimProcessing\\contracts\\ClaimInitiation.sol",
  "compiler": {
    "name": "solc",
    "version": "0.8.18+commit.87f61d96.Emscripten.clang"
  },
  "schemaVersion": "3.4.12",
  "updatedAt": "2023-04-29T20:36:53.078Z",
  "devdoc": {
    "kind": "dev",
    "methods": {},
    "version": 1
  },
  "userdoc": {
    "kind": "user",
    "methods": {},
    "version": 1
  }
}