{
  "contractName": "PolicyContract",
  "abi": [
    {
      "anonymous": false,
      "inputs": [
        {
          "indexed": false,
          "internalType": "uint256",
          "name": "policyId",
          "type": "uint256"
        },
        {
          "indexed": false,
          "internalType": "address",
          "name": "userAddress",
          "type": "address"
        }
      ],
      "name": "PolicyCreated",
      "type": "event"
    },
    {
      "inputs": [],
      "name": "lastPolicyId",
      "outputs": [
        {
          "internalType": "uint256",
          "name": "",
          "type": "uint256"
        }
      ],
      "stateMutability": "view",
      "type": "function"
    },
    {
      "inputs": [
        {
          "internalType": "uint256",
          "name": "",
          "type": "uint256"
        }
      ],
      "name": "policies",
      "outputs": [
        {
          "internalType": "uint256",
          "name": "policyId",
          "type": "uint256"
        },
        {
          "internalType": "address",
          "name": "userAddress",
          "type": "address"
        },
        {
          "internalType": "uint256",
          "name": "amount",
          "type": "uint256"
        },
        {
          "internalType": "string",
          "name": "policyType",
          "type": "string"
        },
        {
          "internalType": "bool",
          "name": "isActive",
          "type": "bool"
        }
      ],
      "stateMutability": "view",
      "type": "function"
    },
    {
      "inputs": [
        {
          "internalType": "uint256",
          "name": "_amount",
          "type": "uint256"
        },
        {
          "internalType": "string",
          "name": "_policyType",
          "type": "string"
        }
      ],
      "name": "createPolicy",
      "outputs": [
        {
          "internalType": "uint256",
          "name": "",
          "type": "uint256"
        }
      ],
      "stateMutability": "nonpayable",
      "type": "function"
    }
  ],
  "bytecode": "0x608060405234801561001057600080fd5b50610b03806100206000396000f3fe608060405234801561001057600080fd5b50600436106100415760003560e01c806335bba93514610046578063d367a15714610064578063d3e8948314610094575b600080fd5b61004e6100c8565b60405161005b919061035e565b60405180910390f35b61007e600480360381019061007991906104ff565b6100ce565b60405161008b919061035e565b60405180910390f35b6100ae60048036038101906100a9919061055b565b61025a565b6040516100bf959493929190610663565b60405180910390f35b60015481565b6000808311610112576040517f08c379a00000000000000000000000000000000000000000000000000000000081526004016101099061072f565b60405180910390fd5b600160008154809291906101259061077e565b91905055506040518060a0016040528060015481526020013373ffffffffffffffffffffffffffffffffffffffff1681526020018481526020018381526020016001151581525060008060015481526020019081526020016000206000820151816000015560208201518160010160006101000a81548173ffffffffffffffffffffffffffffffffffffffff021916908373ffffffffffffffffffffffffffffffffffffffff1602179055506040820151816002015560608201518160030190816101f091906109d2565b5060808201518160040160006101000a81548160ff0219169083151502179055509050507f692975d6d42aec50e0f6ff672acde3bf011e71355ed86dd49de0a1f533950cba60015433604051610247929190610aa4565b60405180910390a1600154905092915050565b60006020528060005260406000206000915090508060000154908060010160009054906101000a900473ffffffffffffffffffffffffffffffffffffffff16908060020154908060030180546102af906107f5565b80601f01602080910402602001604051908101604052809291908181526020018280546102db906107f5565b80156103285780601f106102fd57610100808354040283529160200191610328565b820191906000526020600020905b81548152906001019060200180831161030b57829003601f168201915b5050505050908060040160009054906101000a900460ff16905085565b6000819050919050565b61035881610345565b82525050565b6000602082019050610373600083018461034f565b92915050565b6000604051905090565b600080fd5b600080fd5b61039681610345565b81146103a157600080fd5b50565b6000813590506103b38161038d565b92915050565b600080fd5b600080fd5b6000601f19601f8301169050919050565b7f4e487b7100000000000000000000000000000000000000000000000000000000600052604160045260246000fd5b61040c826103c3565b810181811067ffffffffffffffff8211171561042b5761042a6103d4565b5b80604052505050565b600061043e610379565b905061044a8282610403565b919050565b600067ffffffffffffffff82111561046a576104696103d4565b5b610473826103c3565b9050602081019050919050565b82818337600083830152505050565b60006104a261049d8461044f565b610434565b9050828152602081018484840111156104be576104bd6103be565b5b6104c9848285610480565b509392505050565b600082601f8301126104e6576104e56103b9565b5b81356104f684826020860161048f565b91505092915050565b6000806040838503121561051657610515610383565b5b6000610524858286016103a4565b925050602083013567ffffffffffffffff81111561054557610544610388565b5b610551858286016104d1565b9150509250929050565b60006020828403121561057157610570610383565b5b600061057f848285016103a4565b91505092915050565b600073ffffffffffffffffffffffffffffffffffffffff82169050919050565b60006105b382610588565b9050919050565b6105c3816105a8565b82525050565b600081519050919050565b600082825260208201905092915050565b60005b838110156106035780820151818401526020810190506105e8565b60008484015250505050565b600061061a826105c9565b61062481856105d4565b93506106348185602086016105e5565b61063d816103c3565b840191505092915050565b60008115159050919050565b61065d81610648565b82525050565b600060a082019050610678600083018861034f565b61068560208301876105ba565b610692604083018661034f565b81810360608301526106a4818561060f565b90506106b36080830184610654565b9695505050505050565b7f506f6c69637920616d6f756e742073686f756c6420626520677265617465722060008201527f7468616e20300000000000000000000000000000000000000000000000000000602082015250565b60006107196026836105d4565b9150610724826106bd565b604082019050919050565b600060208201905081810360008301526107488161070c565b9050919050565b7f4e487b7100000000000000000000000000000000000000000000000000000000600052601160045260246000fd5b600061078982610345565b91507fffffffffffffffffffffffffffffffffffffffffffffffffffffffffffffffff82036107bb576107ba61074f565b5b600182019050919050565b7f4e487b7100000000000000000000000000000000000000000000000000000000600052602260045260246000fd5b6000600282049050600182168061080d57607f821691505b6020821081036108205761081f6107c6565b5b50919050565b60008190508160005260206000209050919050565b60006020601f8301049050919050565b600082821b905092915050565b6000600883026108887fffffffffffffffffffffffffffffffffffffffffffffffffffffffffffffffff8261084b565b610892868361084b565b95508019841693508086168417925050509392505050565b6000819050919050565b60006108cf6108ca6108c584610345565b6108aa565b610345565b9050919050565b6000819050919050565b6108e9836108b4565b6108fd6108f5826108d6565b848454610858565b825550505050565b600090565b610912610905565b61091d8184846108e0565b505050565b5b818110156109415761093660008261090a565b600181019050610923565b5050565b601f8211156109865761095781610826565b6109608461083b565b8101602085101561096f578190505b61098361097b8561083b565b830182610922565b50505b505050565b600082821c905092915050565b60006109a96000198460080261098b565b1980831691505092915050565b60006109c28383610998565b9150826002028217905092915050565b6109db826105c9565b67ffffffffffffffff8111156109f4576109f36103d4565b5b6109fe82546107f5565b610a09828285610945565b600060209050601f831160018114610a3c5760008415610a2a578287015190505b610a3485826109b6565b865550610a9c565b601f198416610a4a86610826565b60005b82811015610a7257848901518255600182019150602085019450602081019050610a4d565b86831015610a8f5784890151610a8b601f891682610998565b8355505b6001600288020188555050505b505050505050565b6000604082019050610ab9600083018561034f565b610ac660208301846105ba565b939250505056fea264697066735822122077393405688ca34daa80dc2afa48baea9605368eb080197d135db1c892261dbc64736f6c63430008120033",
  "immutableReferences": {},
  "source": "// SPDX-License-Identifier: MIT\r\npragma solidity ^0.8.0;\r\n\r\ncontract PolicyContract {\r\n    \r\n    struct Policy {\r\n        uint256 policyId;\r\n        address userAddress;\r\n        uint256 amount;\r\n        string policyType;\r\n        bool isActive;\r\n    }\r\n    \r\n    mapping(uint256 => Policy) public policies;\r\n    \r\n    uint256 public lastPolicyId;\r\n    \r\n    event PolicyCreated(uint256 policyId, address userAddress);\r\n    \r\n    function createPolicy(uint256 _amount, string memory _policyType) public returns(uint256) {\r\n        require(_amount > 0, \"Policy amount should be greater than 0\");\r\n        \r\n        lastPolicyId++;\r\n        policies[lastPolicyId] = Policy(lastPolicyId, msg.sender, _amount, _policyType, true);\r\n        \r\n        emit PolicyCreated(lastPolicyId, msg.sender);\r\n        \r\n        return lastPolicyId;\r\n    }\r\n}",
  "sourcePath": "D:\\Insu.ClaimProcessing\\contracts\\PolicyContract.sol",
  "compiler": {
    "name": "solc",
    "version": "0.8.18+commit.87f61d96.Emscripten.clang"
  },
  "schemaVersion": "3.4.12",
  "updatedAt": "2023-04-29T20:36:53.117Z",
  "devdoc": {
    "kind": "dev",
    "methods": {},
    "version": 1
  },
  "userdoc": {
    "kind": "user",
    "methods": {},
    "version": 1
  }
}