{
  "contractName": "UserRegistration",
  "abi": [
    {
      "anonymous": false,
      "inputs": [
        {
          "indexed": false,
          "internalType": "uint256",
          "name": "userId",
          "type": "uint256"
        },
        {
          "indexed": false,
          "internalType": "address",
          "name": "userAddress",
          "type": "address"
        }
      ],
      "name": "UserRegistered",
      "type": "event"
    },
    {
      "inputs": [],
      "name": "lastUserId",
      "outputs": [
        {
          "internalType": "uint256",
          "name": "",
          "type": "uint256"
        }
      ],
      "stateMutability": "view",
      "type": "function"
    },
    {
      "inputs": [
        {
          "internalType": "address",
          "name": "",
          "type": "address"
        }
      ],
      "name": "users",
      "outputs": [
        {
          "internalType": "address",
          "name": "userAddress",
          "type": "address"
        },
        {
          "internalType": "uint256",
          "name": "userId",
          "type": "uint256"
        },
        {
          "internalType": "string",
          "name": "name",
          "type": "string"
        },
        {
          "internalType": "string",
          "name": "email",
          "type": "string"
        },
        {
          "internalType": "string",
          "name": "password",
          "type": "string"
        }
      ],
      "stateMutability": "view",
      "type": "function"
    },
    {
      "inputs": [
        {
          "internalType": "string",
          "name": "_name",
          "type": "string"
        },
        {
          "internalType": "string",
          "name": "_email",
          "type": "string"
        },
        {
          "internalType": "string",
          "name": "_password",
          "type": "string"
        }
      ],
      "name": "registerUser",
      "outputs": [],
      "stateMutability": "nonpayable",
      "type": "function"
    }
  ],
  "bytecode": "0x608060405234801561001057600080fd5b50610d83806100206000396000f3fe608060405234801561001057600080fd5b50600436106100415760003560e01c8063348d448714610046578063a87430ba14610064578063d637dcfa14610098575b600080fd5b61004e6100b4565b60405161005b919061055a565b60405180910390f35b61007e600480360381019061007991906105e7565b6100ba565b60405161008f9594939291906106b3565b60405180910390f35b6100b260048036038101906100ad9190610850565b6102a8565b005b60015481565b60006020528060005260406000206000915090508060000160009054906101000a900473ffffffffffffffffffffffffffffffffffffffff169080600101549080600201805461010990610926565b80601f016020809104026020016040519081016040528092919081815260200182805461013590610926565b80156101825780601f1061015757610100808354040283529160200191610182565b820191906000526020600020905b81548152906001019060200180831161016557829003601f168201915b50505050509080600301805461019790610926565b80601f01602080910402602001604051908101604052809291908181526020018280546101c390610926565b80156102105780601f106101e557610100808354040283529160200191610210565b820191906000526020600020905b8154815290600101906020018083116101f357829003601f168201915b50505050509080600401805461022590610926565b80601f016020809104026020016040519081016040528092919081815260200182805461025190610926565b801561029e5780601f106102735761010080835404028352916020019161029e565b820191906000526020600020905b81548152906001019060200180831161028157829003601f168201915b5050505050905085565b600083511180156102ba575060008251115b80156102c7575060008151115b610306576040517f08c379a00000000000000000000000000000000000000000000000000000000081526004016102fd906109a3565b60405180910390fd5b600073ffffffffffffffffffffffffffffffffffffffff166000803373ffffffffffffffffffffffffffffffffffffffff1673ffffffffffffffffffffffffffffffffffffffff16815260200190815260200160002060000160009054906101000a900473ffffffffffffffffffffffffffffffffffffffff1673ffffffffffffffffffffffffffffffffffffffff16146103d6576040517f08c379a00000000000000000000000000000000000000000000000000000000081526004016103cd90610a0f565b60405180910390fd5b600160008154809291906103e990610a5e565b91905055506040518060a001604052803373ffffffffffffffffffffffffffffffffffffffff1681526020016001548152602001848152602001838152602001828152506000803373ffffffffffffffffffffffffffffffffffffffff1673ffffffffffffffffffffffffffffffffffffffff16815260200190815260200160002060008201518160000160006101000a81548173ffffffffffffffffffffffffffffffffffffffff021916908373ffffffffffffffffffffffffffffffffffffffff1602179055506020820151816001015560408201518160020190816104d19190610c52565b5060608201518160030190816104e79190610c52565b5060808201518160040190816104fd9190610c52565b509050507fb442efe467d2ef30e62927a3cae0afcbc799a8a0944d8a143332e4e5e51cee5d60015433604051610534929190610d24565b60405180910390a1505050565b6000819050919050565b61055481610541565b82525050565b600060208201905061056f600083018461054b565b92915050565b6000604051905090565b600080fd5b600080fd5b600073ffffffffffffffffffffffffffffffffffffffff82169050919050565b60006105b482610589565b9050919050565b6105c4816105a9565b81146105cf57600080fd5b50565b6000813590506105e1816105bb565b92915050565b6000602082840312156105fd576105fc61057f565b5b600061060b848285016105d2565b91505092915050565b61061d816105a9565b82525050565b600081519050919050565b600082825260208201905092915050565b60005b8381101561065d578082015181840152602081019050610642565b60008484015250505050565b6000601f19601f8301169050919050565b600061068582610623565b61068f818561062e565b935061069f81856020860161063f565b6106a881610669565b840191505092915050565b600060a0820190506106c86000830188610614565b6106d5602083018761054b565b81810360408301526106e7818661067a565b905081810360608301526106fb818561067a565b9050818103608083015261070f818461067a565b90509695505050505050565b600080fd5b600080fd5b7f4e487b7100000000000000000000000000000000000000000000000000000000600052604160045260246000fd5b61075d82610669565b810181811067ffffffffffffffff8211171561077c5761077b610725565b5b80604052505050565b600061078f610575565b905061079b8282610754565b919050565b600067ffffffffffffffff8211156107bb576107ba610725565b5b6107c482610669565b9050602081019050919050565b82818337600083830152505050565b60006107f36107ee846107a0565b610785565b90508281526020810184848401111561080f5761080e610720565b5b61081a8482856107d1565b509392505050565b600082601f8301126108375761083661071b565b5b81356108478482602086016107e0565b91505092915050565b6000806000606084860312156108695761086861057f565b5b600084013567ffffffffffffffff81111561088757610886610584565b5b61089386828701610822565b935050602084013567ffffffffffffffff8111156108b4576108b3610584565b5b6108c086828701610822565b925050604084013567ffffffffffffffff8111156108e1576108e0610584565b5b6108ed86828701610822565b9150509250925092565b7f4e487b7100000000000000000000000000000000000000000000000000000000600052602260045260246000fd5b6000600282049050600182168061093e57607f821691505b602082108103610951576109506108f7565b5b50919050565b7f416c6c206669656c647320617265207265717569726564000000000000000000600082015250565b600061098d60178361062e565b915061099882610957565b602082019050919050565b600060208201905081810360008301526109bc81610980565b9050919050565b7f5573657220616c72656164792065786973747300000000000000000000000000600082015250565b60006109f960138361062e565b9150610a04826109c3565b602082019050919050565b60006020820190508181036000830152610a28816109ec565b9050919050565b7f4e487b7100000000000000000000000000000000000000000000000000000000600052601160045260246000fd5b6000610a6982610541565b91507fffffffffffffffffffffffffffffffffffffffffffffffffffffffffffffffff8203610a9b57610a9a610a2f565b5b600182019050919050565b60008190508160005260206000209050919050565b60006020601f8301049050919050565b600082821b905092915050565b600060088302610b087fffffffffffffffffffffffffffffffffffffffffffffffffffffffffffffffff82610acb565b610b128683610acb565b95508019841693508086168417925050509392505050565b6000819050919050565b6000610b4f610b4a610b4584610541565b610b2a565b610541565b9050919050565b6000819050919050565b610b6983610b34565b610b7d610b7582610b56565b848454610ad8565b825550505050565b600090565b610b92610b85565b610b9d818484610b60565b505050565b5b81811015610bc157610bb6600082610b8a565b600181019050610ba3565b5050565b601f821115610c0657610bd781610aa6565b610be084610abb565b81016020851015610bef578190505b610c03610bfb85610abb565b830182610ba2565b50505b505050565b600082821c905092915050565b6000610c2960001984600802610c0b565b1980831691505092915050565b6000610c428383610c18565b9150826002028217905092915050565b610c5b82610623565b67ffffffffffffffff811115610c7457610c73610725565b5b610c7e8254610926565b610c89828285610bc5565b600060209050601f831160018114610cbc5760008415610caa578287015190505b610cb48582610c36565b865550610d1c565b601f198416610cca86610aa6565b60005b82811015610cf257848901518255600182019150602085019450602081019050610ccd565b86831015610d0f5784890151610d0b601f891682610c18565b8355505b6001600288020188555050505b505050505050565b6000604082019050610d39600083018561054b565b610d466020830184610614565b939250505056fea26469706673582212202776d71181d29feda5f1932a0165eb451e5d124448e25bde76a1a5d09d08385c64736f6c63430008120033",
  "immutableReferences": {},
  "source": "// SPDX-License-Identifier: MIT\r\npragma solidity ^0.8.0;\r\n\r\ncontract UserRegistration {\r\n    \r\n    struct User {\r\n        address userAddress;\r\n        uint256 userId;\r\n        string name;\r\n        string email;\r\n        string password;\r\n    }\r\n    \r\n    mapping(address => User) public users;\r\n    \r\n    uint256 public lastUserId;\r\n    \r\n    event UserRegistered(uint256 userId, address userAddress);\r\n    \r\n    function registerUser(string memory _name, string memory _email, string memory _password) public {\r\n        require(bytes(_name).length > 0 && bytes(_email).length > 0 && bytes(_password).length > 0, \"All fields are required\");\r\n        require(users[msg.sender].userAddress == address(0), \"User already exists\");\r\n        \r\n        lastUserId++;\r\n        users[msg.sender] = User(msg.sender, lastUserId, _name, _email, _password);\r\n        \r\n        emit UserRegistered(lastUserId, msg.sender);\r\n    }\r\n}",
  "sourcePath": "D:\\Insu.ClaimProcessing\\contracts\\NewUserReg.sol",
  "compiler": {
    "name": "solc",
    "version": "0.8.18+commit.87f61d96.Emscripten.clang"
  },
  "schemaVersion": "3.4.12",
  "updatedAt": "2023-04-29T20:36:15.637Z",
  "devdoc": {
    "kind": "dev",
    "methods": {},
    "version": 1
  },
  "userdoc": {
    "kind": "user",
    "methods": {},
    "version": 1
  }
}