{
  "contractName": "ClaimVerification",
  "abi": [
    {
      "inputs": [],
      "name": "claimContract",
      "outputs": [
        {
          "internalType": "contract ClaimInitiation",
          "name": "",
          "type": "address"
        }
      ],
      "stateMutability": "view",
      "type": "function"
    },
    {
      "inputs": [],
      "name": "policyContract",
      "outputs": [
        {
          "internalType": "contract PolicyContract",
          "name": "",
          "type": "address"
        }
      ],
      "stateMutability": "view",
      "type": "function"
    }
  ],
  "bytecode": "0x608060405234801561001057600080fd5b506101cd806100206000396000f3fe608060405234801561001057600080fd5b50600436106100365760003560e01c806366345da41461003b5780637ff0635714610059575b600080fd5b610043610077565b6040516100509190610140565b60405180910390f35b61006161009b565b60405161006e919061017c565b60405180910390f35b60008054906101000a900473ffffffffffffffffffffffffffffffffffffffff1681565b600160009054906101000a900473ffffffffffffffffffffffffffffffffffffffff1681565b600073ffffffffffffffffffffffffffffffffffffffff82169050919050565b6000819050919050565b60006101066101016100fc846100c1565b6100e1565b6100c1565b9050919050565b6000610118826100eb565b9050919050565b600061012a8261010d565b9050919050565b61013a8161011f565b82525050565b60006020820190506101556000830184610131565b92915050565b60006101668261010d565b9050919050565b6101768161015b565b82525050565b6000602082019050610191600083018461016d565b9291505056fea26469706673582212202d86115bdd5dd0c6c158d9627725c03ff29cec5bb9d93f94bd2745b5b0f7634f64736f6c63430008120033",
  "immutableReferences": {},
  "source": "// SPDX-License-Identifier: MIT\r\npragma solidity ^0.8.0;\r\n\r\nimport \"./ClaimInitiation.sol\";\r\nimport \"./PolicyContract.sol\";\r\n\r\ncontract ClaimVerification {\r\n\r\n    ClaimInitiation public claimContract;\r\n    PolicyContract public policyContract;\r\n\r\n    // constructor(address _claimContractAddress) {\r\n    //     claimContract = ClaimInitiation(_claimContractAddress);\r\n    //     policyContract = claimContract.PolicyContract();\r\n    // }\r\n\r\n    // function verifyClaim(uint256 _claimId) public {\r\n    //     ClaimInitiation.Claim storage claim = claimContract.claims(_claimId);\r\n    //     require(msg.sender == policyContract.policies(claim.policyId).insurerAddress, \"Only insurer can verify the claim\");\r\n    //     require(claim.isVerified == false, \"Claim already verified\");\r\n\r\n    //     claim.isVerified = true;\r\n    // }\r\n}",
  "sourcePath": "D:\\Insu.ClaimProcessing\\contracts\\ClainVerification.sol",
  "compiler": {
    "name": "solc",
    "version": "0.8.18+commit.87f61d96.Emscripten.clang"
  },
  "schemaVersion": "3.4.12",
  "updatedAt": "2023-05-03T07:15:02.349Z",
  "devdoc": {
    "kind": "dev",
    "methods": {},
    "version": 1
  },
  "userdoc": {
    "kind": "user",
    "methods": {},
    "version": 1
  }
}