{
  "contractName": "UserRegistration",
  "abi": [
    {
      "anonymous": false,
      "inputs": [
        {
          "indexed": false,
          "internalType": "uint256",
          "name": "claimId",
          "type": "uint256"
        },
        {
          "indexed": false,
          "internalType": "address",
          "name": "userAddress",
          "type": "address"
        }
      ],
      "name": "ClaimInitiated",
      "type": "event"
    },
    {
      "anonymous": false,
      "inputs": [
        {
          "indexed": false,
          "internalType": "uint256",
          "name": "policyId",
          "type": "uint256"
        },
        {
          "indexed": false,
          "internalType": "address",
          "name": "userAddress",
          "type": "address"
        }
      ],
      "name": "PolicyCreated",
      "type": "event"
    },
    {
      "anonymous": false,
      "inputs": [
        {
          "indexed": false,
          "internalType": "uint256",
          "name": "userId",
          "type": "uint256"
        },
        {
          "indexed": false,
          "internalType": "address",
          "name": "userAddress",
          "type": "address"
        }
      ],
      "name": "UserRegistered",
      "type": "event"
    },
    {
      "inputs": [
        {
          "internalType": "uint256",
          "name": "",
          "type": "uint256"
        }
      ],
      "name": "claims",
      "outputs": [
        {
          "internalType": "uint256",
          "name": "claimId",
          "type": "uint256"
        },
        {
          "internalType": "uint256",
          "name": "policyId",
          "type": "uint256"
        },
        {
          "internalType": "address",
          "name": "userAddress",
          "type": "address"
        },
        {
          "internalType": "string",
          "name": "claimReason",
          "type": "string"
        },
        {
          "internalType": "uint256",
          "name": "claimAmount",
          "type": "uint256"
        },
        {
          "internalType": "bool",
          "name": "isVerified",
          "type": "bool"
        },
        {
          "internalType": "bool",
          "name": "isProcessed",
          "type": "bool"
        }
      ],
      "stateMutability": "view",
      "type": "function",
      "constant": true
    },
    {
      "inputs": [],
      "name": "lastClaimId",
      "outputs": [
        {
          "internalType": "uint256",
          "name": "",
          "type": "uint256"
        }
      ],
      "stateMutability": "view",
      "type": "function",
      "constant": true
    },
    {
      "inputs": [],
      "name": "lastPolicyId",
      "outputs": [
        {
          "internalType": "uint256",
          "name": "",
          "type": "uint256"
        }
      ],
      "stateMutability": "view",
      "type": "function",
      "constant": true
    },
    {
      "inputs": [],
      "name": "lastUserId",
      "outputs": [
        {
          "internalType": "uint256",
          "name": "",
          "type": "uint256"
        }
      ],
      "stateMutability": "view",
      "type": "function",
      "constant": true
    },
    {
      "inputs": [
        {
          "internalType": "uint256",
          "name": "",
          "type": "uint256"
        }
      ],
      "name": "policies",
      "outputs": [
        {
          "internalType": "uint256",
          "name": "policyId",
          "type": "uint256"
        },
        {
          "internalType": "address",
          "name": "userAddress",
          "type": "address"
        },
        {
          "internalType": "uint256",
          "name": "amount",
          "type": "uint256"
        },
        {
          "internalType": "string",
          "name": "policyType",
          "type": "string"
        },
        {
          "internalType": "bool",
          "name": "isActive",
          "type": "bool"
        }
      ],
      "stateMutability": "view",
      "type": "function",
      "constant": true
    },
    {
      "inputs": [
        {
          "internalType": "address",
          "name": "",
          "type": "address"
        }
      ],
      "name": "users",
      "outputs": [
        {
          "internalType": "address",
          "name": "userAddress",
          "type": "address"
        },
        {
          "internalType": "uint256",
          "name": "userId",
          "type": "uint256"
        },
        {
          "internalType": "string",
          "name": "name",
          "type": "string"
        },
        {
          "internalType": "string",
          "name": "email",
          "type": "string"
        },
        {
          "internalType": "string",
          "name": "password",
          "type": "string"
        }
      ],
      "stateMutability": "view",
      "type": "function",
      "constant": true
    },
    {
      "inputs": [
        {
          "internalType": "string",
          "name": "_name",
          "type": "string"
        },
        {
          "internalType": "string",
          "name": "_email",
          "type": "string"
        },
        {
          "internalType": "string",
          "name": "_password",
          "type": "string"
        }
      ],
      "name": "registerUser",
      "outputs": [],
      "stateMutability": "nonpayable",
      "type": "function"
    },
    {
      "inputs": [
        {
          "internalType": "uint256",
          "name": "_amount",
          "type": "uint256"
        },
        {
          "internalType": "string",
          "name": "_policyType",
          "type": "string"
        }
      ],
      "name": "createPolicy",
      "outputs": [
        {
          "internalType": "uint256",
          "name": "",
          "type": "uint256"
        }
      ],
      "stateMutability": "nonpayable",
      "type": "function"
    },
    {
      "inputs": [
        {
          "internalType": "uint256",
          "name": "_policyId",
          "type": "uint256"
        },
        {
          "internalType": "string",
          "name": "_claimReason",
          "type": "string"
        },
        {
          "internalType": "uint256",
          "name": "_claimAmount",
          "type": "uint256"
        }
      ],
      "name": "initiateClaim",
      "outputs": [
        {
          "internalType": "uint256",
          "name": "",
          "type": "uint256"
        }
      ],
      "stateMutability": "nonpayable",
      "type": "function"
    },
    {
      "inputs": [
        {
          "internalType": "uint256",
          "name": "_claimId",
          "type": "uint256"
        }
      ],
      "name": "verifyClaim",
      "outputs": [],
      "stateMutability": "nonpayable",
      "type": "function"
    }
  ],
  "bytecode": "0x608060405234801561001057600080fd5b506119ba806100206000396000f3fe608060405234801561001057600080fd5b506004361061009e5760003560e01c8063a888c2cd11610066578063a888c2cd14610161578063c0d7e2b614610197578063d367a157146101b3578063d3e89483146101e3578063d637dcfa146102175761009e565b806329f1c955146100a3578063348d4487146100d357806335bba935146100f15780637119ca761461010f578063a87430ba1461012d575b600080fd5b6100bd60048036038101906100b89190610ed7565b610233565b6040516100ca9190610f55565b60405180910390f35b6100db6103fa565b6040516100e89190610f55565b60405180910390f35b6100f9610400565b6040516101069190610f55565b60405180910390f35b610117610406565b6040516101249190610f55565b60405180910390f35b61014760048036038101906101429190610fce565b61040c565b604051610158959493929190611089565b60405180910390f35b61017b600480360381019061017691906110f1565b6105fa565b60405161018e9796959493929190611139565b60405180910390f35b6101b160048036038101906101ac91906110f1565b6106fe565b005b6101cd60048036038101906101c891906111af565b610836565b6040516101da9190610f55565b60405180910390f35b6101fd60048036038101906101f891906110f1565b6109c3565b60405161020e95949392919061120b565b60405180910390f35b610231600480360381019061022c9190611265565b610aae565b005b6000808211610277576040517f08c379a000000000000000000000000000000000000000000000000000000000815260040161026e9061137e565b60405180910390fd5b6005600081548092919061028a906113cd565b91905055506040518060e0016040528060055481526020018581526020013373ffffffffffffffffffffffffffffffffffffffff16815260200184815260200183815260200160001515815260200160001515815250600460006005548152602001908152602001600020600082015181600001556020820151816001015560408201518160020160006101000a81548173ffffffffffffffffffffffffffffffffffffffff021916908373ffffffffffffffffffffffffffffffffffffffff16021790555060608201518160030190816103659190611621565b506080820151816004015560a08201518160050160006101000a81548160ff02191690831515021790555060c08201518160050160016101000a81548160ff0219169083151502179055509050507f16110602114a9075a58c79178f3c42e8f3efedf21fe3169ef4d674ee461bfb56600554336040516103e69291906116f3565b60405180910390a160055490509392505050565b60015481565b60035481565b60055481565b60006020528060005260406000206000915090508060000160009054906101000a900473ffffffffffffffffffffffffffffffffffffffff169080600101549080600201805461045b90611444565b80601f016020809104026020016040519081016040528092919081815260200182805461048790611444565b80156104d45780601f106104a9576101008083540402835291602001916104d4565b820191906000526020600020905b8154815290600101906020018083116104b757829003601f168201915b5050505050908060030180546104e990611444565b80601f016020809104026020016040519081016040528092919081815260200182805461051590611444565b80156105625780601f1061053757610100808354040283529160200191610562565b820191906000526020600020905b81548152906001019060200180831161054557829003601f168201915b50505050509080600401805461057790611444565b80601f01602080910402602001604051908101604052809291908181526020018280546105a390611444565b80156105f05780601f106105c5576101008083540402835291602001916105f0565b820191906000526020600020905b8154815290600101906020018083116105d357829003601f168201915b5050505050905085565b60046020528060005260406000206000915090508060000154908060010154908060020160009054906101000a900473ffffffffffffffffffffffffffffffffffffffff169080600301805461064f90611444565b80601f016020809104026020016040519081016040528092919081815260200182805461067b90611444565b80156106c85780601f1061069d576101008083540402835291602001916106c8565b820191906000526020600020905b8154815290600101906020018083116106ab57829003601f168201915b5050505050908060040154908060050160009054906101000a900460ff16908060050160019054906101000a900460ff16905087565b6000600460008381526020019081526020016000209050600260008260010154815260200190815260200160002060010160009054906101000a900473ffffffffffffffffffffffffffffffffffffffff1673ffffffffffffffffffffffffffffffffffffffff163373ffffffffffffffffffffffffffffffffffffffff16146107bd576040517f08c379a00000000000000000000000000000000000000000000000000000000081526004016107b49061178e565b60405180910390fd5b600015158160050160009054906101000a900460ff16151514610815576040517f08c379a000000000000000000000000000000000000000000000000000000000815260040161080c906117fa565b60405180910390fd5b60018160050160006101000a81548160ff0219169083151502179055505050565b600080831161087a576040517f08c379a00000000000000000000000000000000000000000000000000000000081526004016108719061188c565b60405180910390fd5b6003600081548092919061088d906113cd565b91905055506040518060a0016040528060035481526020013373ffffffffffffffffffffffffffffffffffffffff168152602001848152602001838152602001600115158152506002600060035481526020019081526020016000206000820151816000015560208201518160010160006101000a81548173ffffffffffffffffffffffffffffffffffffffff021916908373ffffffffffffffffffffffffffffffffffffffff1602179055506040820151816002015560608201518160030190816109599190611621565b5060808201518160040160006101000a81548160ff0219169083151502179055509050507f692975d6d42aec50e0f6ff672acde3bf011e71355ed86dd49de0a1f533950cba600354336040516109b09291906116f3565b60405180910390a1600354905092915050565b60026020528060005260406000206000915090508060000154908060010160009054906101000a900473ffffffffffffffffffffffffffffffffffffffff1690806002015490806003018054610a1890611444565b80601f0160208091040260200160405190810160405280929190818152602001828054610a4490611444565b8015610a915780601f10610a6657610100808354040283529160200191610a91565b820191906000526020600020905b815481529060010190602001808311610a7457829003601f168201915b5050505050908060040160009054906101000a900460ff16905085565b60008351118015610ac0575060008251115b8015610acd575060008151115b610b0c576040517f08c379a0000000000000000000000000000000000000000000000000000000008152600401610b03906118f8565b60405180910390fd5b600073ffffffffffffffffffffffffffffffffffffffff166000803373ffffffffffffffffffffffffffffffffffffffff1673ffffffffffffffffffffffffffffffffffffffff16815260200190815260200160002060000160009054906101000a900473ffffffffffffffffffffffffffffffffffffffff1673ffffffffffffffffffffffffffffffffffffffff1614610bdc576040517f08c379a0000000000000000000000000000000000000000000000000000000008152600401610bd390611964565b60405180910390fd5b60016000815480929190610bef906113cd565b91905055506040518060a001604052803373ffffffffffffffffffffffffffffffffffffffff1681526020016001548152602001848152602001838152602001828152506000803373ffffffffffffffffffffffffffffffffffffffff1673ffffffffffffffffffffffffffffffffffffffff16815260200190815260200160002060008201518160000160006101000a81548173ffffffffffffffffffffffffffffffffffffffff021916908373ffffffffffffffffffffffffffffffffffffffff160217905550602082015181600101556040820151816002019081610cd79190611621565b506060820151816003019081610ced9190611621565b506080820151816004019081610d039190611621565b509050507fb442efe467d2ef30e62927a3cae0afcbc799a8a0944d8a143332e4e5e51cee5d60015433604051610d3a9291906116f3565b60405180910390a1505050565b6000604051905090565b600080fd5b600080fd5b6000819050919050565b610d6e81610d5b565b8114610d7957600080fd5b50565b600081359050610d8b81610d65565b92915050565b600080fd5b600080fd5b6000601f19601f8301169050919050565b7f4e487b7100000000000000000000000000000000000000000000000000000000600052604160045260246000fd5b610de482610d9b565b810181811067ffffffffffffffff82111715610e0357610e02610dac565b5b80604052505050565b6000610e16610d47565b9050610e228282610ddb565b919050565b600067ffffffffffffffff821115610e4257610e41610dac565b5b610e4b82610d9b565b9050602081019050919050565b82818337600083830152505050565b6000610e7a610e7584610e27565b610e0c565b905082815260208101848484011115610e9657610e95610d96565b5b610ea1848285610e58565b509392505050565b600082601f830112610ebe57610ebd610d91565b5b8135610ece848260208601610e67565b91505092915050565b600080600060608486031215610ef057610eef610d51565b5b6000610efe86828701610d7c565b935050602084013567ffffffffffffffff811115610f1f57610f1e610d56565b5b610f2b86828701610ea9565b9250506040610f3c86828701610d7c565b9150509250925092565b610f4f81610d5b565b82525050565b6000602082019050610f6a6000830184610f46565b92915050565b600073ffffffffffffffffffffffffffffffffffffffff82169050919050565b6000610f9b82610f70565b9050919050565b610fab81610f90565b8114610fb657600080fd5b50565b600081359050610fc881610fa2565b92915050565b600060208284031215610fe457610fe3610d51565b5b6000610ff284828501610fb9565b91505092915050565b61100481610f90565b82525050565b600081519050919050565b600082825260208201905092915050565b60005b83811015611044578082015181840152602081019050611029565b60008484015250505050565b600061105b8261100a565b6110658185611015565b9350611075818560208601611026565b61107e81610d9b565b840191505092915050565b600060a08201905061109e6000830188610ffb565b6110ab6020830187610f46565b81810360408301526110bd8186611050565b905081810360608301526110d18185611050565b905081810360808301526110e58184611050565b90509695505050505050565b60006020828403121561110757611106610d51565b5b600061111584828501610d7c565b91505092915050565b60008115159050919050565b6111338161111e565b82525050565b600060e08201905061114e600083018a610f46565b61115b6020830189610f46565b6111686040830188610ffb565b818103606083015261117a8187611050565b90506111896080830186610f46565b61119660a083018561112a565b6111a360c083018461112a565b98975050505050505050565b600080604083850312156111c6576111c5610d51565b5b60006111d485828601610d7c565b925050602083013567ffffffffffffffff8111156111f5576111f4610d56565b5b61120185828601610ea9565b9150509250929050565b600060a0820190506112206000830188610f46565b61122d6020830187610ffb565b61123a6040830186610f46565b818103606083015261124c8185611050565b905061125b608083018461112a565b9695505050505050565b60008060006060848603121561127e5761127d610d51565b5b600084013567ffffffffffffffff81111561129c5761129b610d56565b5b6112a886828701610ea9565b935050602084013567ffffffffffffffff8111156112c9576112c8610d56565b5b6112d586828701610ea9565b925050604084013567ffffffffffffffff8111156112f6576112f5610d56565b5b61130286828701610ea9565b9150509250925092565b7f436c61696d20616d6f756e742073686f756c642062652067726561746572207460008201527f68616e2030000000000000000000000000000000000000000000000000000000602082015250565b6000611368602583611015565b91506113738261130c565b604082019050919050565b600060208201905081810360008301526113978161135b565b9050919050565b7f4e487b7100000000000000000000000000000000000000000000000000000000600052601160045260246000fd5b60006113d882610d5b565b91507fffffffffffffffffffffffffffffffffffffffffffffffffffffffffffffffff820361140a5761140961139e565b5b600182019050919050565b7f4e487b7100000000000000000000000000000000000000000000000000000000600052602260045260246000fd5b6000600282049050600182168061145c57607f821691505b60208210810361146f5761146e611415565b5b50919050565b60008190508160005260206000209050919050565b60006020601f8301049050919050565b600082821b905092915050565b6000600883026114d77fffffffffffffffffffffffffffffffffffffffffffffffffffffffffffffffff8261149a565b6114e1868361149a565b95508019841693508086168417925050509392505050565b6000819050919050565b600061151e61151961151484610d5b565b6114f9565b610d5b565b9050919050565b6000819050919050565b61153883611503565b61154c61154482611525565b8484546114a7565b825550505050565b600090565b611561611554565b61156c81848461152f565b505050565b5b8181101561159057611585600082611559565b600181019050611572565b5050565b601f8211156115d5576115a681611475565b6115af8461148a565b810160208510156115be578190505b6115d26115ca8561148a565b830182611571565b50505b505050565b600082821c905092915050565b60006115f8600019846008026115da565b1980831691505092915050565b600061161183836115e7565b9150826002028217905092915050565b61162a8261100a565b67ffffffffffffffff81111561164357611642610dac565b5b61164d8254611444565b611658828285611594565b600060209050601f83116001811461168b5760008415611679578287015190505b6116838582611605565b8655506116eb565b601f19841661169986611475565b60005b828110156116c15784890151825560018201915060208501945060208101905061169c565b868310156116de57848901516116da601f8916826115e7565b8355505b6001600288020188555050505b505050505050565b60006040820190506117086000830185610f46565b6117156020830184610ffb565b9392505050565b7f4f6e6c7920696e73757265722063616e207665726966792074686520636c616960008201527f6d00000000000000000000000000000000000000000000000000000000000000602082015250565b6000611778602183611015565b91506117838261171c565b604082019050919050565b600060208201905081810360008301526117a78161176b565b9050919050565b7f436c61696d20616c726561647920766572696669656400000000000000000000600082015250565b60006117e4601683611015565b91506117ef826117ae565b602082019050919050565b60006020820190508181036000830152611813816117d7565b9050919050565b7f506f6c69637920616d6f756e742073686f756c6420626520677265617465722060008201527f7468616e20300000000000000000000000000000000000000000000000000000602082015250565b6000611876602683611015565b91506118818261181a565b604082019050919050565b600060208201905081810360008301526118a581611869565b9050919050565b7f416c6c206669656c647320617265207265717569726564000000000000000000600082015250565b60006118e2601783611015565b91506118ed826118ac565b602082019050919050565b60006020820190508181036000830152611911816118d5565b9050919050565b7f5573657220616c72656164792065786973747300000000000000000000000000600082015250565b600061194e601383611015565b915061195982611918565b602082019050919050565b6000602082019050818103600083015261197d81611941565b905091905056fea264697066735822122077f3c58b22837899cb7e23d733dd2619c47d1dc9613ebfeed17c0f96881c8da964736f6c63430008120033",
  "immutableReferences": {},
  "source": "// SPDX-License-Identifier: MIT\r\npragma solidity ^0.8.0;\r\n\r\ncontract UserRegistration {\r\n    \r\n    struct User {\r\n        address userAddress;\r\n        uint256 userId;\r\n        string name;\r\n        string email;\r\n        string password;\r\n    }\r\n    \r\n    mapping(address => User) public users;\r\n    \r\n    uint256 public lastUserId;\r\n    \r\n    event UserRegistered(uint256 userId, address userAddress);\r\n    \r\n    function registerUser(string memory _name, string memory _email, string memory _password) public {\r\n        require(bytes(_name).length > 0 && bytes(_email).length > 0 && bytes(_password).length > 0, \"All fields are required\");\r\n        require(users[msg.sender].userAddress == address(0), \"User already exists\");\r\n        \r\n        lastUserId++;\r\n        users[msg.sender] = User(msg.sender, lastUserId, _name, _email, _password);\r\n        \r\n        emit UserRegistered(lastUserId, msg.sender);\r\n    }\r\n    \r\n    struct Policy {\r\n        uint256 policyId;\r\n        address userAddress;\r\n        uint256 amount;\r\n        string policyType;\r\n        bool isActive;\r\n    }\r\n    \r\n    mapping(uint256 => Policy) public policies;\r\n    \r\n    uint256 public lastPolicyId;\r\n    \r\n    event PolicyCreated(uint256 policyId, address userAddress);\r\n    \r\n    function createPolicy(uint256 _amount, string memory _policyType) public returns(uint256) {\r\n        require(_amount > 0, \"Policy amount should be greater than 0\");\r\n        \r\n        lastPolicyId++;\r\n        policies[lastPolicyId] = Policy(lastPolicyId, msg.sender, _amount, _policyType, true);\r\n        \r\n        emit PolicyCreated(lastPolicyId, msg.sender);\r\n        \r\n        return lastPolicyId;\r\n    }\r\n    \r\n    struct Claim {\r\n        uint256 claimId;\r\n        uint256 policyId;\r\n        address userAddress;\r\n        string claimReason;\r\n        uint256 claimAmount;\r\n        bool isVerified;\r\n        bool isProcessed;\r\n    }\r\n    \r\n    mapping(uint256 => Claim) public claims;\r\n    \r\n    uint256 public lastClaimId;\r\n    \r\n    event ClaimInitiated(uint256 claimId, address userAddress);\r\n    \r\n    function initiateClaim(uint256 _policyId, string memory _claimReason, uint256 _claimAmount) public returns(uint256) {\r\n        require(_claimAmount > 0, \"Claim amount should be greater than 0\");\r\n        \r\n        lastClaimId++;\r\n        claims[lastClaimId] = Claim(lastClaimId, _policyId, msg.sender, _claimReason, _claimAmount, false, false);\r\n        \r\n        emit ClaimInitiated(lastClaimId, msg.sender);\r\n        \r\n        return lastClaimId;\r\n    }\r\n    \r\n    function verifyClaim(uint256 _claimId) public {\r\n        Claim storage claim = claims[_claimId];\r\n        require(msg.sender == policies[claim.policyId].userAddress, \"Only insurer can verify the claim\");\r\n        require(claim.isVerified == false, \"Claim already verified\");\r\n\r\n        claim.isVerified = true;\r\n    }\r\n}\r\n\r\n\r\n\r\n\r\n",
  "sourcePath": "D:\\Insu.ClaimProcessing\\contracts\\ChainThat.sol",
  "compiler": {
    "name": "solc",
    "version": "0.8.18+commit.87f61d96.Emscripten.clang"
  },
  "schemaVersion": "3.4.12",
  "updatedAt": "2023-05-03T07:15:26.905Z",
  "networkType": "ethereum",
  "devdoc": {
    "kind": "dev",
    "methods": {},
    "version": 1
  },
  "userdoc": {
    "kind": "user",
    "methods": {},
    "version": 1
  }
}